{
  "_format": "hh-sol-artifact-1",
  "contractName": "VibeNFT",
  "sourceName": "contracts/VibeNFT.sol",
  "abi": [
    {
      "inputs": [
        {
          "internalType": "address",
          "name": "initialOwner",
          "type": "address"
        },
        {
          "internalType": "address",
          "name": "_requiredToken",
          "type": "address"
        }
      ],
      "stateMutability": "nonpayable",
      "type": "constructor"
    },
    {
      "inputs": [],
      "name": "AlreadyOwnsNFT",
      "type": "error"
    },
    {
      "inputs": [],
      "name": "ECDSAInvalidSignature",
      "type": "error"
    },
    {
      "inputs": [
        {
          "internalType": "uint256",
          "name": "length",
          "type": "uint256"
        }
      ],
      "name": "ECDSAInvalidSignatureLength",
      "type": "error"
    },
    {
      "inputs": [
        {
          "internalType": "bytes32",
          "name": "s",
          "type": "bytes32"
        }
      ],
      "name": "ECDSAInvalidSignatureS",
      "type": "error"
    },
    {
      "inputs": [],
      "name": "ERC721EnumerableForbiddenBatchMint",
      "type": "error"
    },
    {
      "inputs": [
        {
          "internalType": "address",
          "name": "sender",
          "type": "address"
        },
        {
          "internalType": "uint256",
          "name": "tokenId",
          "type": "uint256"
        },
        {
          "internalType": "address",
          "name": "owner",
          "type": "address"
        }
      ],
      "name": "ERC721IncorrectOwner",
      "type": "error"
    },
    {
      "inputs": [
        {
          "internalType": "address",
          "name": "operator",
          "type": "address"
        },
        {
          "internalType": "uint256",
          "name": "tokenId",
          "type": "uint256"
        }
      ],
      "name": "ERC721InsufficientApproval",
      "type": "error"
    },
    {
      "inputs": [
        {
          "internalType": "address",
          "name": "approver",
          "type": "address"
        }
      ],
      "name": "ERC721InvalidApprover",
      "type": "error"
    },
    {
      "inputs": [
        {
          "internalType": "address",
          "name": "operator",
          "type": "address"
        }
      ],
      "name": "ERC721InvalidOperator",
      "type": "error"
    },
    {
      "inputs": [
        {
          "internalType": "address",
          "name": "owner",
          "type": "address"
        }
      ],
      "name": "ERC721InvalidOwner",
      "type": "error"
    },
    {
      "inputs": [
        {
          "internalType": "address",
          "name": "receiver",
          "type": "address"
        }
      ],
      "name": "ERC721InvalidReceiver",
      "type": "error"
    },
    {
      "inputs": [
        {
          "internalType": "address",
          "name": "sender",
          "type": "address"
        }
      ],
      "name": "ERC721InvalidSender",
      "type": "error"
    },
    {
      "inputs": [
        {
          "internalType": "uint256",
          "name": "tokenId",
          "type": "uint256"
        }
      ],
      "name": "ERC721NonexistentToken",
      "type": "error"
    },
    {
      "inputs": [
        {
          "internalType": "address",
          "name": "owner",
          "type": "address"
        },
        {
          "internalType": "uint256",
          "name": "index",
          "type": "uint256"
        }
      ],
      "name": "ERC721OutOfBoundsIndex",
      "type": "error"
    },
    {
      "inputs": [],
      "name": "InsufficientTokenBalance",
      "type": "error"
    },
    {
      "inputs": [],
      "name": "InvalidShortString",
      "type": "error"
    },
    {
      "inputs": [
        {
          "internalType": "address",
          "name": "owner",
          "type": "address"
        }
      ],
      "name": "OwnableInvalidOwner",
      "type": "error"
    },
    {
      "inputs": [
        {
          "internalType": "address",
          "name": "account",
          "type": "address"
        }
      ],
      "name": "OwnableUnauthorizedAccount",
      "type": "error"
    },
    {
      "inputs": [
        {
          "internalType": "string",
          "name": "str",
          "type": "string"
        }
      ],
      "name": "StringTooLong",
      "type": "error"
    },
    {
      "anonymous": false,
      "inputs": [
        {
          "indexed": true,
          "internalType": "address",
          "name": "owner",
          "type": "address"
        },
        {
          "indexed": true,
          "internalType": "address",
          "name": "approved",
          "type": "address"
        },
        {
          "indexed": true,
          "internalType": "uint256",
          "name": "tokenId",
          "type": "uint256"
        }
      ],
      "name": "Approval",
      "type": "event"
    },
    {
      "anonymous": false,
      "inputs": [
        {
          "indexed": true,
          "internalType": "address",
          "name": "owner",
          "type": "address"
        },
        {
          "indexed": true,
          "internalType": "address",
          "name": "operator",
          "type": "address"
        },
        {
          "indexed": false,
          "internalType": "bool",
          "name": "approved",
          "type": "bool"
        }
      ],
      "name": "ApprovalForAll",
      "type": "event"
    },
    {
      "anonymous": false,
      "inputs": [
        {
          "indexed": false,
          "internalType": "uint256",
          "name": "_fromTokenId",
          "type": "uint256"
        },
        {
          "indexed": false,
          "internalType": "uint256",
          "name": "_toTokenId",
          "type": "uint256"
        }
      ],
      "name": "BatchMetadataUpdate",
      "type": "event"
    },
    {
      "anonymous": false,
      "inputs": [],
      "name": "EIP712DomainChanged",
      "type": "event"
    },
    {
      "anonymous": false,
      "inputs": [
        {
          "indexed": false,
          "internalType": "uint256",
          "name": "_tokenId",
          "type": "uint256"
        }
      ],
      "name": "MetadataUpdate",
      "type": "event"
    },
    {
      "anonymous": false,
      "inputs": [
        {
          "indexed": true,
          "internalType": "address",
          "name": "previousOwner",
          "type": "address"
        },
        {
          "indexed": true,
          "internalType": "address",
          "name": "newOwner",
          "type": "address"
        }
      ],
      "name": "OwnershipTransferred",
      "type": "event"
    },
    {
      "anonymous": false,
      "inputs": [
        {
          "indexed": true,
          "internalType": "address",
          "name": "from",
          "type": "address"
        },
        {
          "indexed": true,
          "internalType": "address",
          "name": "to",
          "type": "address"
        },
        {
          "indexed": true,
          "internalType": "uint256",
          "name": "tokenId",
          "type": "uint256"
        }
      ],
      "name": "Transfer",
      "type": "event"
    },
    {
      "inputs": [
        {
          "internalType": "address",
          "name": "to",
          "type": "address"
        },
        {
          "internalType": "uint256",
          "name": "tokenId",
          "type": "uint256"
        }
      ],
      "name": "approve",
      "outputs": [],
      "stateMutability": "nonpayable",
      "type": "function"
    },
    {
      "inputs": [
        {
          "internalType": "address",
          "name": "owner",
          "type": "address"
        }
      ],
      "name": "balanceOf",
      "outputs": [
        {
          "internalType": "uint256",
          "name": "",
          "type": "uint256"
        }
      ],
      "stateMutability": "view",
      "type": "function"
    },
    {
      "inputs": [
        {
          "internalType": "address",
          "name": "user",
          "type": "address"
        }
      ],
      "name": "canMint",
      "outputs": [
        {
          "internalType": "bool",
          "name": "",
          "type": "bool"
        }
      ],
      "stateMutability": "view",
      "type": "function"
    },
    {
      "inputs": [],
      "name": "eip712Domain",
      "outputs": [
        {
          "internalType": "bytes1",
          "name": "fields",
          "type": "bytes1"
        },
        {
          "internalType": "string",
          "name": "name",
          "type": "string"
        },
        {
          "internalType": "string",
          "name": "version",
          "type": "string"
        },
        {
          "internalType": "uint256",
          "name": "chainId",
          "type": "uint256"
        },
        {
          "internalType": "address",
          "name": "verifyingContract",
          "type": "address"
        },
        {
          "internalType": "bytes32",
          "name": "salt",
          "type": "bytes32"
        },
        {
          "internalType": "uint256[]",
          "name": "extensions",
          "type": "uint256[]"
        }
      ],
      "stateMutability": "view",
      "type": "function"
    },
    {
      "inputs": [
        {
          "internalType": "uint256",
          "name": "tokenId",
          "type": "uint256"
        }
      ],
      "name": "getApproved",
      "outputs": [
        {
          "internalType": "address",
          "name": "",
          "type": "address"
        }
      ],
      "stateMutability": "view",
      "type": "function"
    },
    {
      "inputs": [
        {
          "internalType": "address",
          "name": "user",
          "type": "address"
        }
      ],
      "name": "getRequiredTokenBalance",
      "outputs": [
        {
          "internalType": "uint256",
          "name": "",
          "type": "uint256"
        }
      ],
      "stateMutability": "view",
      "type": "function"
    },
    {
      "inputs": [
        {
          "internalType": "address",
          "name": "owner",
          "type": "address"
        },
        {
          "internalType": "address",
          "name": "operator",
          "type": "address"
        }
      ],
      "name": "isApprovedForAll",
      "outputs": [
        {
          "internalType": "bool",
          "name": "",
          "type": "bool"
        }
      ],
      "stateMutability": "view",
      "type": "function"
    },
    {
      "inputs": [],
      "name": "name",
      "outputs": [
        {
          "internalType": "string",
          "name": "",
          "type": "string"
        }
      ],
      "stateMutability": "view",
      "type": "function"
    },
    {
      "inputs": [],
      "name": "owner",
      "outputs": [
        {
          "internalType": "address",
          "name": "",
          "type": "address"
        }
      ],
      "stateMutability": "view",
      "type": "function"
    },
    {
      "inputs": [
        {
          "internalType": "uint256",
          "name": "tokenId",
          "type": "uint256"
        }
      ],
      "name": "ownerOf",
      "outputs": [
        {
          "internalType": "address",
          "name": "",
          "type": "address"
        }
      ],
      "stateMutability": "view",
      "type": "function"
    },
    {
      "inputs": [],
      "name": "renounceOwnership",
      "outputs": [],
      "stateMutability": "nonpayable",
      "type": "function"
    },
    {
      "inputs": [],
      "name": "requiredToken",
      "outputs": [
        {
          "internalType": "contract IERC20",
          "name": "",
          "type": "address"
        }
      ],
      "stateMutability": "view",
      "type": "function"
    },
    {
      "inputs": [
        {
          "internalType": "string",
          "name": "uri",
          "type": "string"
        },
        {
          "internalType": "bytes",
          "name": "signature",
          "type": "bytes"
        }
      ],
      "name": "safeMint",
      "outputs": [],
      "stateMutability": "nonpayable",
      "type": "function"
    },
    {
      "inputs": [
        {
          "internalType": "address",
          "name": "from",
          "type": "address"
        },
        {
          "internalType": "address",
          "name": "to",
          "type": "address"
        },
        {
          "internalType": "uint256",
          "name": "tokenId",
          "type": "uint256"
        }
      ],
      "name": "safeTransferFrom",
      "outputs": [],
      "stateMutability": "nonpayable",
      "type": "function"
    },
    {
      "inputs": [
        {
          "internalType": "address",
          "name": "from",
          "type": "address"
        },
        {
          "internalType": "address",
          "name": "to",
          "type": "address"
        },
        {
          "internalType": "uint256",
          "name": "tokenId",
          "type": "uint256"
        },
        {
          "internalType": "bytes",
          "name": "data",
          "type": "bytes"
        }
      ],
      "name": "safeTransferFrom",
      "outputs": [],
      "stateMutability": "nonpayable",
      "type": "function"
    },
    {
      "inputs": [
        {
          "internalType": "address",
          "name": "operator",
          "type": "address"
        },
        {
          "internalType": "bool",
          "name": "approved",
          "type": "bool"
        }
      ],
      "name": "setApprovalForAll",
      "outputs": [],
      "stateMutability": "nonpayable",
      "type": "function"
    },
    {
      "inputs": [
        {
          "internalType": "address",
          "name": "_requiredToken",
          "type": "address"
        }
      ],
      "name": "setRequiredToken",
      "outputs": [],
      "stateMutability": "nonpayable",
      "type": "function"
    },
    {
      "inputs": [
        {
          "internalType": "bytes4",
          "name": "interfaceId",
          "type": "bytes4"
        }
      ],
      "name": "supportsInterface",
      "outputs": [
        {
          "internalType": "bool",
          "name": "",
          "type": "bool"
        }
      ],
      "stateMutability": "view",
      "type": "function"
    },
    {
      "inputs": [],
      "name": "symbol",
      "outputs": [
        {
          "internalType": "string",
          "name": "",
          "type": "string"
        }
      ],
      "stateMutability": "view",
      "type": "function"
    },
    {
      "inputs": [
        {
          "internalType": "uint256",
          "name": "index",
          "type": "uint256"
        }
      ],
      "name": "tokenByIndex",
      "outputs": [
        {
          "internalType": "uint256",
          "name": "",
          "type": "uint256"
        }
      ],
      "stateMutability": "view",
      "type": "function"
    },
    {
      "inputs": [
        {
          "internalType": "address",
          "name": "owner",
          "type": "address"
        },
        {
          "internalType": "uint256",
          "name": "index",
          "type": "uint256"
        }
      ],
      "name": "tokenOfOwnerByIndex",
      "outputs": [
        {
          "internalType": "uint256",
          "name": "",
          "type": "uint256"
        }
      ],
      "stateMutability": "view",
      "type": "function"
    },
    {
      "inputs": [
        {
          "internalType": "uint256",
          "name": "tokenId",
          "type": "uint256"
        }
      ],
      "name": "tokenURI",
      "outputs": [
        {
          "internalType": "string",
          "name": "",
          "type": "string"
        }
      ],
      "stateMutability": "view",
      "type": "function"
    },
    {
      "inputs": [],
      "name": "totalSupply",
      "outputs": [
        {
          "internalType": "uint256",
          "name": "",
          "type": "uint256"
        }
      ],
      "stateMutability": "view",
      "type": "function"
    },
    {
      "inputs": [
        {
          "internalType": "address",
          "name": "from",
          "type": "address"
        },
        {
          "internalType": "address",
          "name": "to",
          "type": "address"
        },
        {
          "internalType": "uint256",
          "name": "tokenId",
          "type": "uint256"
        }
      ],
      "name": "transferFrom",
      "outputs": [],
      "stateMutability": "nonpayable",
      "type": "function"
    },
    {
      "inputs": [
        {
          "internalType": "address",
          "name": "newOwner",
          "type": "address"
        }
      ],
      "name": "transferOwnership",
      "outputs": [],
      "stateMutability": "nonpayable",
      "type": "function"
    }
  ],
  "bytecode": "0x6101606040523480156200001257600080fd5b50604051620026ab380380620026ab8339810160408190526200003591620002d4565b60405180604001604052806007815260200166159a589953919560ca1b815250604051806040016040528060018152602001603160f81b8152508360405180604001604052806008815260200167159a58994813919560c21b815250604051806040016040528060048152602001635649424560e01b8152508160009081620000bf9190620003b1565b506001620000ce8282620003b1565b5050506001600160a01b0381166200010157604051631e4fbdf760e01b8152600060048201526024015b60405180910390fd5b6200010c81620001e9565b506200011a82600c6200023b565b610120526200012b81600d6200023b565b61014052815160208084019190912060e052815190820120610100524660a052620001b960e05161010051604080517f8b73c3c69bb8fe3d512ecc4cf759cc79239f7b179b0ffacaa9a75d522b39400f60208201529081019290925260608201524660808201523060a082015260009060c00160405160208183030381529060405280519060200120905090565b60805250503060c052600f80546001600160a01b0319166001600160a01b039290921691909117905550620004f2565b600b80546001600160a01b038381166001600160a01b0319831681179093556040519116919082907f8be0079c531659141344cd1fd0a4f28419497f9722a3daafe3b4186f6b6457e090600090a35050565b60006020835110156200025b57620002538362000274565b90506200026e565b81620002688482620003b1565b5060ff90505b92915050565b600080829050601f81511115620002a2578260405163305a27a960e01b8152600401620000f891906200047d565b8051620002af82620004cd565b179392505050565b80516001600160a01b0381168114620002cf57600080fd5b919050565b60008060408385031215620002e857600080fd5b620002f383620002b7565b91506200030360208401620002b7565b90509250929050565b634e487b7160e01b600052604160045260246000fd5b600181811c908216806200033757607f821691505b6020821081036200035857634e487b7160e01b600052602260045260246000fd5b50919050565b601f821115620003ac57600081815260208120601f850160051c81016020861015620003875750805b601f850160051c820191505b81811015620003a85782815560010162000393565b5050505b505050565b81516001600160401b03811115620003cd57620003cd6200030c565b620003e581620003de845462000322565b846200035e565b602080601f8311600181146200041d5760008415620004045750858301515b600019600386901b1c1916600185901b178555620003a8565b600085815260208120601f198616915b828110156200044e578886015182559484019460019091019084016200042d565b50858210156200046d5787850151600019600388901b60f8161c191681555b5050505050600190811b01905550565b600060208083528351808285015260005b81811015620004ac578581018301518582016040015282016200048e565b506000604082860101526040601f19601f8301168501019250505092915050565b80516020808301519190811015620003585760001960209190910360031b1b16919050565b60805160a05160c05160e05161010051610120516101405161215e6200054d6000396000610b3301526000610b01015260006112dd015260006112b5015260006112100152600061123a01526000611264015261215e6000f3fe608060405234801561001057600080fd5b50600436106101735760003560e01c806384b0196e116100de578063b88d4fde11610097578063dbb3164511610071578063dbb3164514610327578063dcc34a991461033a578063e985e9c51461034d578063f2fde38b1461036057600080fd5b8063b88d4fde146102ee578063c2ba474414610301578063c87b56dd1461031457600080fd5b806384b0196e146102815780638a204ed61461029c5780638da5cb5b146102af57806395d89b41146102c05780639eaa34ec146102c8578063a22cb465146102db57600080fd5b80632f745c59116101305780632f745c591461021a57806342842e0e1461022d5780634f6ccce7146102405780636352211e1461025357806370a0823114610266578063715018a61461027957600080fd5b806301ffc9a71461017857806306fdde03146101a0578063081812fc146101b5578063095ea7b3146101e057806318160ddd146101f557806323b872dd14610207575b600080fd5b61018b610186366004611af8565b610373565b60405190151581526020015b60405180910390f35b6101a8610384565b6040516101979190611b65565b6101c86101c3366004611b78565b610416565b6040516001600160a01b039091168152602001610197565b6101f36101ee366004611bad565b61043f565b005b6008545b604051908152602001610197565b6101f3610215366004611bd7565b61044e565b6101f9610228366004611bad565b6104de565b6101f361023b366004611bd7565b610543565b6101f961024e366004611b78565b610563565b6101c8610261366004611b78565b6105bc565b6101f9610274366004611c13565b6105c7565b6101f361060f565b610289610623565b6040516101979796959493929190611c2e565b600f546101c8906001600160a01b031681565b600b546001600160a01b03166101c8565b6101a8610669565b6101f96102d6366004611c13565b610678565b6101f36102e9366004611cc4565b6106e7565b6101f36102fc366004611dac565b6106f2565b61018b61030f366004611c13565b61070a565b6101a8610322366004611b78565b610793565b6101f3610335366004611e14565b61079e565b6101f3610348366004611c13565b610965565b61018b61035b366004611e8f565b61098f565b6101f361036e366004611c13565b6109bd565b600061037e826109fb565b92915050565b60606000805461039390611ec2565b80601f01602080910402602001604051908101604052809291908181526020018280546103bf90611ec2565b801561040c5780601f106103e15761010080835404028352916020019161040c565b820191906000526020600020905b8154815290600101906020018083116103ef57829003601f168201915b5050505050905090565b600061042182610a20565b506000828152600460205260409020546001600160a01b031661037e565b61044a828233610a59565b5050565b6001600160a01b03821661047d57604051633250574960e11b8152600060048201526024015b60405180910390fd5b600061048a838333610a66565b9050836001600160a01b0316816001600160a01b0316146104d8576040516364283d7b60e01b81526001600160a01b0380861660048301526024820184905282166044820152606401610474565b50505050565b60006104e9836105c7565b821061051a5760405163295f44f760e21b81526001600160a01b038416600482015260248101839052604401610474565b506001600160a01b03919091166000908152600660209081526040808320938352929052205490565b61055e838383604051806020016040528060008152506106f2565b505050565b600061056e60085490565b82106105975760405163295f44f760e21b81526000600482015260248101839052604401610474565b600882815481106105aa576105aa611efc565b90600052602060002001549050919050565b600061037e82610a20565b60006001600160a01b0382166105f3576040516322718ad960e21b815260006004820152602401610474565b506001600160a01b031660009081526003602052604090205490565b610617610a7b565b6106216000610aa8565b565b600060608060008060006060610637610afa565b61063f610b2c565b60408051600080825260208201909252600f60f81b9b939a50919850469750309650945092509050565b60606001805461039390611ec2565b600f546040516370a0823160e01b81526001600160a01b03838116600483015260009216906370a0823190602401602060405180830381865afa1580156106c3573d6000803e3d6000fd5b505050506040513d601f19601f8201168201806040525081019061037e9190611f12565b61044a338383610b59565b6106fd84848461044e565b6104d83385858585610bf8565b6000610715826105c7565b15801561037e5750600f546040516370a0823160e01b81526001600160a01b03848116600483015260009216906370a0823190602401602060405180830381865afa158015610768573d6000803e3d6000fd5b505050506040513d601f19601f8201168201806040525081019061078c9190611f12565b1192915050565b606061037e82610d21565b60006107a9336105c7565b11156107c857604051631a36bee960e31b815260040160405180910390fd5b600f546040516370a0823160e01b81523360048201526001600160a01b03909116906370a0823190602401602060405180830381865afa158015610810573d6000803e3d6000fd5b505050506040513d601f19601f820116820180604052508101906108349190611f12565b60000361085457604051637222ae5760e11b815260040160405180910390fd5b60007fd38ed0b2780eb6ae9ef408775f733222c5c80d7d988fb3aca8562348c54c531b8380519060200120604051602001610899929190918252602082015260400190565b60405160208183030381529060405280519060200120905060006108bc82610e2a565b905060006108ca8285610e57565b90506108de600b546001600160a01b031690565b6001600160a01b0316816001600160a01b0316146109325760405162461bcd60e51b8152602060048201526011602482015270496e76616c6964207369676e617475726560781b6044820152606401610474565b600e80546000918261094383611f41565b9190505590506109533382610e81565b61095d8187610e9b565b505050505050565b61096d610a7b565b600f80546001600160a01b0319166001600160a01b0392909216919091179055565b6001600160a01b03918216600090815260056020908152604080832093909416825291909152205460ff1690565b6109c5610a7b565b6001600160a01b0381166109ef57604051631e4fbdf760e01b815260006004820152602401610474565b6109f881610aa8565b50565b60006001600160e01b03198216632483248360e11b148061037e575061037e82610eeb565b6000818152600260205260408120546001600160a01b03168061037e57604051637e27328960e01b815260048101849052602401610474565b61055e8383836001610f10565b6000610a73848484611016565b949350505050565b600b546001600160a01b031633146106215760405163118cdaa760e01b8152336004820152602401610474565b600b80546001600160a01b038381166001600160a01b0319831681179093556040519116919082907f8be0079c531659141344cd1fd0a4f28419497f9722a3daafe3b4186f6b6457e090600090a35050565b6060610b277f0000000000000000000000000000000000000000000000000000000000000000600c6110e3565b905090565b6060610b277f0000000000000000000000000000000000000000000000000000000000000000600d6110e3565b6001600160a01b038216610b8b57604051630b61174360e31b81526001600160a01b0383166004820152602401610474565b6001600160a01b03838116600081815260056020908152604080832094871680845294825291829020805460ff191686151590811790915591519182527f17307eab39ab6107e8899845ad3d59bd9653f200f220920489ca2b5937696c31910160405180910390a3505050565b6001600160a01b0383163b15610d1a57604051630a85bd0160e11b81526001600160a01b0384169063150b7a0290610c3a908890889087908790600401611f5a565b6020604051808303816000875af1925050508015610c75575060408051601f3d908101601f19168201909252610c7291810190611f97565b60015b610cde573d808015610ca3576040519150601f19603f3d011682016040523d82523d6000602084013e610ca8565b606091505b508051600003610cd657604051633250574960e11b81526001600160a01b0385166004820152602401610474565b805181602001fd5b6001600160e01b03198116630a85bd0160e11b1461095d57604051633250574960e11b81526001600160a01b0385166004820152602401610474565b5050505050565b6060610d2c82610a20565b506000828152600a602052604081208054610d4690611ec2565b80601f0160208091040260200160405190810160405280929190818152602001828054610d7290611ec2565b8015610dbf5780601f10610d9457610100808354040283529160200191610dbf565b820191906000526020600020905b815481529060010190602001808311610da257829003601f168201915b505050505090506000610ddd60408051602081019091526000815290565b90508051600003610def575092915050565b815115610e21578082604051602001610e09929190611fb4565b60405160208183030381529060405292505050919050565b610a738461118e565b600061037e610e37611203565b8360405161190160f01b8152600281019290925260228201526042902090565b600080600080610e67868661132e565b925092509250610e77828261137b565b5090949350505050565b61044a828260405180602001604052806000815250611434565b6000828152600a60205260409020610eb38282612029565b506040518281527ff8e1a15aba9398e019f0b49df1a4fde98ee17ae345cb5f6b5e2c27f5033e8ce79060200160405180910390a15050565b60006001600160e01b0319821663780e9d6360e01b148061037e575061037e8261144c565b8080610f2457506001600160a01b03821615155b15610fe6576000610f3484610a20565b90506001600160a01b03831615801590610f605750826001600160a01b0316816001600160a01b031614155b8015610f735750610f71818461098f565b155b15610f9c5760405163a9fbf51f60e01b81526001600160a01b0384166004820152602401610474565b8115610fe45783856001600160a01b0316826001600160a01b03167f8c5be1e5ebec7d5bd14f71427d1e84f3dd0314c0f7b2291e5b200ac8c7c3b92560405160405180910390a45b505b5050600090815260046020526040902080546001600160a01b0319166001600160a01b0392909216919091179055565b60008061102485858561149c565b90506001600160a01b0381166110815761107c84600880546000838152600960205260408120829055600182018355919091527ff3f7a9fe364faab93b216da50a3214154f22a0a2b415b23a84c8169e8b636ee30155565b6110a4565b846001600160a01b0316816001600160a01b0316146110a4576110a48185611595565b6001600160a01b0385166110c0576110bb84611616565b610a73565b846001600160a01b0316816001600160a01b031614610a7357610a7385856116c5565b606060ff83146110fd576110f683611715565b905061037e565b81805461110990611ec2565b80601f016020809104026020016040519081016040528092919081815260200182805461113590611ec2565b80156111825780601f1061115757610100808354040283529160200191611182565b820191906000526020600020905b81548152906001019060200180831161116557829003601f168201915b5050505050905061037e565b606061119982610a20565b5060006111b160408051602081019091526000815290565b905060008151116111d157604051806020016040528060008152506111fc565b806111db84611754565b6040516020016111ec929190611fb4565b6040516020818303038152906040525b9392505050565b6000306001600160a01b037f00000000000000000000000000000000000000000000000000000000000000001614801561125c57507f000000000000000000000000000000000000000000000000000000000000000046145b1561128657507f000000000000000000000000000000000000000000000000000000000000000090565b610b27604080517f8b73c3c69bb8fe3d512ecc4cf759cc79239f7b179b0ffacaa9a75d522b39400f60208201527f0000000000000000000000000000000000000000000000000000000000000000918101919091527f000000000000000000000000000000000000000000000000000000000000000060608201524660808201523060a082015260009060c00160405160208183030381529060405280519060200120905090565b600080600083516041036113685760208401516040850151606086015160001a61135a888285856117e7565b955095509550505050611374565b50508151600091506002905b9250925092565b600082600381111561138f5761138f6120e9565b03611398575050565b60018260038111156113ac576113ac6120e9565b036113ca5760405163f645eedf60e01b815260040160405180910390fd5b60028260038111156113de576113de6120e9565b036113ff5760405163fce698f760e01b815260048101829052602401610474565b6003826003811115611413576114136120e9565b0361044a576040516335e2f38360e21b815260048101829052602401610474565b61143e83836118b6565b61055e336000858585610bf8565b60006001600160e01b031982166380ac58cd60e01b148061147d57506001600160e01b03198216635b5e139f60e01b145b8061037e57506301ffc9a760e01b6001600160e01b031983161461037e565b6000828152600260205260408120546001600160a01b03908116908316156114c9576114c981848661191b565b6001600160a01b03811615611507576114e6600085600080610f10565b6001600160a01b038116600090815260036020526040902080546000190190555b6001600160a01b03851615611536576001600160a01b0385166000908152600360205260409020805460010190555b60008481526002602052604080822080546001600160a01b0319166001600160a01b0389811691821790925591518793918516917fddf252ad1be2c89b69c2b068fc378daa952ba7f163c4a11628f55a4df523b3ef91a4949350505050565b60006115a0836105c7565b6000838152600760209081526040808320546001600160a01b03881684526006909252909120919250908183146115f757600083815260208281526040808320548584528184208190558352600790915290208290555b6000938452600760209081526040808620869055938552525081205550565b600854600090611628906001906120ff565b6000838152600960205260408120546008805493945090928490811061165057611650611efc565b90600052602060002001549050806008838154811061167157611671611efc565b60009182526020808320909101929092558281526009909152604080822084905585825281205560088054806116a9576116a9612112565b6001900381819060005260206000200160009055905550505050565b600060016116d2846105c7565b6116dc91906120ff565b6001600160a01b039093166000908152600660209081526040808320868452825280832085905593825260079052919091209190915550565b606060006117228361197f565b604080516020808252818301909252919250600091906020820181803683375050509182525060208101929092525090565b60606000611761836119a7565b600101905060008167ffffffffffffffff81111561178157611781611d00565b6040519080825280601f01601f1916602001820160405280156117ab576020820181803683370190505b5090508181016020015b600019016f181899199a1a9b1b9c1cb0b131b232b360811b600a86061a8153600a85049450846117b557509392505050565b600080807f7fffffffffffffffffffffffffffffff5d576e7357a4501ddfe92f46681b20a084111561182257506000915060039050826118ac565b604080516000808252602082018084528a905260ff891692820192909252606081018790526080810186905260019060a0016020604051602081039080840390855afa158015611876573d6000803e3d6000fd5b5050604051601f1901519150506001600160a01b0381166118a2575060009250600191508290506118ac565b9250600091508190505b9450945094915050565b6001600160a01b0382166118e057604051633250574960e11b815260006004820152602401610474565b60006118ee83836000610a66565b90506001600160a01b0381161561055e576040516339e3563760e11b815260006004820152602401610474565b611926838383611a7f565b61055e576001600160a01b03831661195457604051637e27328960e01b815260048101829052602401610474565b60405163177e802f60e01b81526001600160a01b038316600482015260248101829052604401610474565b600060ff8216601f81111561037e57604051632cd44ac360e21b815260040160405180910390fd5b60008072184f03e93ff9f4daa797ed6e38ed64bf6a1f0160401b83106119e65772184f03e93ff9f4daa797ed6e38ed64bf6a1f0160401b830492506040015b6d04ee2d6d415b85acef81000000008310611a12576d04ee2d6d415b85acef8100000000830492506020015b662386f26fc100008310611a3057662386f26fc10000830492506010015b6305f5e1008310611a48576305f5e100830492506008015b6127108310611a5c57612710830492506004015b60648310611a6e576064830492506002015b600a831061037e5760010192915050565b60006001600160a01b03831615801590610a735750826001600160a01b0316846001600160a01b03161480611ab95750611ab9848461098f565b80610a735750506000908152600460205260409020546001600160a01b03908116911614919050565b6001600160e01b0319811681146109f857600080fd5b600060208284031215611b0a57600080fd5b81356111fc81611ae2565b60005b83811015611b30578181015183820152602001611b18565b50506000910152565b60008151808452611b51816020860160208601611b15565b601f01601f19169290920160200192915050565b6020815260006111fc6020830184611b39565b600060208284031215611b8a57600080fd5b5035919050565b80356001600160a01b0381168114611ba857600080fd5b919050565b60008060408385031215611bc057600080fd5b611bc983611b91565b946020939093013593505050565b600080600060608486031215611bec57600080fd5b611bf584611b91565b9250611c0360208501611b91565b9150604084013590509250925092565b600060208284031215611c2557600080fd5b6111fc82611b91565b60ff60f81b881681526000602060e081840152611c4e60e084018a611b39565b8381036040850152611c60818a611b39565b606085018990526001600160a01b038816608086015260a0850187905284810360c0860152855180825283870192509083019060005b81811015611cb257835183529284019291840191600101611c96565b50909c9b505050505050505050505050565b60008060408385031215611cd757600080fd5b611ce083611b91565b915060208301358015158114611cf557600080fd5b809150509250929050565b634e487b7160e01b600052604160045260246000fd5b600067ffffffffffffffff80841115611d3157611d31611d00565b604051601f8501601f19908116603f01168101908282118183101715611d5957611d59611d00565b81604052809350858152868686011115611d7257600080fd5b858560208301376000602087830101525050509392505050565b600082601f830112611d9d57600080fd5b6111fc83833560208501611d16565b60008060008060808587031215611dc257600080fd5b611dcb85611b91565b9350611dd960208601611b91565b925060408501359150606085013567ffffffffffffffff811115611dfc57600080fd5b611e0887828801611d8c565b91505092959194509250565b60008060408385031215611e2757600080fd5b823567ffffffffffffffff80821115611e3f57600080fd5b818501915085601f830112611e5357600080fd5b611e6286833560208501611d16565b93506020850135915080821115611e7857600080fd5b50611e8585828601611d8c565b9150509250929050565b60008060408385031215611ea257600080fd5b611eab83611b91565b9150611eb960208401611b91565b90509250929050565b600181811c90821680611ed657607f821691505b602082108103611ef657634e487b7160e01b600052602260045260246000fd5b50919050565b634e487b7160e01b600052603260045260246000fd5b600060208284031215611f2457600080fd5b5051919050565b634e487b7160e01b600052601160045260246000fd5b600060018201611f5357611f53611f2b565b5060010190565b6001600160a01b0385811682528416602082015260408101839052608060608201819052600090611f8d90830184611b39565b9695505050505050565b600060208284031215611fa957600080fd5b81516111fc81611ae2565b60008351611fc6818460208801611b15565b835190830190611fda818360208801611b15565b01949350505050565b601f82111561055e57600081815260208120601f850160051c8101602086101561200a5750805b601f850160051c820191505b8181101561095d57828155600101612016565b815167ffffffffffffffff81111561204357612043611d00565b612057816120518454611ec2565b84611fe3565b602080601f83116001811461208c57600084156120745750858301515b600019600386901b1c1916600185901b17855561095d565b600085815260208120601f198616915b828110156120bb5788860151825594840194600190910190840161209c565b50858210156120d95787850151600019600388901b60f8161c191681555b5050505050600190811b01905550565b634e487b7160e01b600052602160045260246000fd5b8181038181111561037e5761037e611f2b565b634e487b7160e01b600052603160045260246000fdfea2646970667358221220cc7b4f50ac395b45b505f01aa064d0733230087d9d3ec069d9a85bc618b14db664736f6c63430008140033",
  "linkReferences": {},
  "deployedLinkReferences": {}
}